{
  "contractName": "SimpleBank",
  "abi": [
    {
      "anonymous": false,
      "inputs": [
        {
          "indexed": false,
          "internalType": "address",
          "name": "accountAddress",
          "type": "address"
        },
        {
          "indexed": false,
          "internalType": "uint256",
          "name": "amount",
          "type": "uint256"
        }
      ],
      "name": "LogDepositMade",
      "type": "event"
    },
    {
      "anonymous": false,
      "inputs": [
        {
          "indexed": false,
          "internalType": "address",
          "name": "account",
          "type": "address"
        }
      ],
      "name": "LogEnrolled",
      "type": "event"
    },
    {
      "anonymous": false,
      "inputs": [
        {
          "indexed": false,
          "internalType": "address",
          "name": "accountAddress",
          "type": "address"
        },
        {
          "indexed": false,
          "internalType": "uint256",
          "name": "newBalance",
          "type": "uint256"
        },
        {
          "indexed": false,
          "internalType": "uint256",
          "name": "withdrawAmount",
          "type": "uint256"
        }
      ],
      "name": "LogWithdrawal",
      "type": "event"
    },
    {
      "payable": true,
      "stateMutability": "payable",
      "type": "fallback"
    },
    {
      "constant": true,
      "inputs": [
        {
          "internalType": "address",
          "name": "",
          "type": "address"
        }
      ],
      "name": "enrolled",
      "outputs": [
        {
          "internalType": "bool",
          "name": "",
          "type": "bool"
        }
      ],
      "payable": false,
      "stateMutability": "view",
      "type": "function"
    },
    {
      "constant": true,
      "inputs": [],
      "name": "owner",
      "outputs": [
        {
          "internalType": "address",
          "name": "",
          "type": "address"
        }
      ],
      "payable": false,
      "stateMutability": "view",
      "type": "function"
    },
    {
      "constant": true,
      "inputs": [],
      "name": "getBalance",
      "outputs": [
        {
          "internalType": "uint256",
          "name": "",
          "type": "uint256"
        }
      ],
      "payable": false,
      "stateMutability": "view",
      "type": "function"
    },
    {
      "constant": false,
      "inputs": [],
      "name": "enroll",
      "outputs": [
        {
          "internalType": "bool",
          "name": "",
          "type": "bool"
        }
      ],
      "payable": false,
      "stateMutability": "nonpayable",
      "type": "function"
    },
    {
      "constant": false,
      "inputs": [],
      "name": "deposit",
      "outputs": [
        {
          "internalType": "uint256",
          "name": "",
          "type": "uint256"
        }
      ],
      "payable": true,
      "stateMutability": "payable",
      "type": "function"
    },
    {
      "constant": false,
      "inputs": [
        {
          "internalType": "uint256",
          "name": "withdrawAmount",
          "type": "uint256"
        }
      ],
      "name": "withdraw",
      "outputs": [
        {
          "internalType": "uint256",
          "name": "",
          "type": "uint256"
        }
      ],
      "payable": false,
      "stateMutability": "nonpayable",
      "type": "function"
    }
  ],
  "bytecode": "0x608060405233600260006101000a81548173ffffffffffffffffffffffffffffffffffffffff021916908373ffffffffffffffffffffffffffffffffffffffff16021790555034801561005157600080fd5b50610774806100616000396000f3fe6080604052600436106100555760003560e01c806310eb0e0e1461005a57806312065fe0146100c35780632e1a7d4d146100ee5780638da5cb5b1461013d578063d0e30db014610194578063e65f2a7e146101b2575b600080fd5b34801561006657600080fd5b506100a96004803603602081101561007d57600080fd5b81019080803573ffffffffffffffffffffffffffffffffffffffff1690602001909291905050506101e1565b604051808215151515815260200191505060405180910390f35b3480156100cf57600080fd5b506100d8610201565b6040518082815260200191505060405180910390f35b3480156100fa57600080fd5b506101276004803603602081101561011157600080fd5b8101908080359060200190929190505050610247565b6040518082815260200191505060405180910390f35b34801561014957600080fd5b50610152610425565b604051808273ffffffffffffffffffffffffffffffffffffffff1673ffffffffffffffffffffffffffffffffffffffff16815260200191505060405180910390f35b61019c61044b565b6040518082815260200191505060405180910390f35b3480156101be57600080fd5b506101c7610607565b604051808215151515815260200191505060405180910390f35b60016020528060005260406000206000915054906101000a900460ff1681565b60008060003373ffffffffffffffffffffffffffffffffffffffff1673ffffffffffffffffffffffffffffffffffffffff16815260200190815260200160002054905090565b600081806000803373ffffffffffffffffffffffffffffffffffffffff1673ffffffffffffffffffffffffffffffffffffffff1681526020019081526020016000205410156102e1576040517f08c379a000000000000000000000000000000000000000000000000000000000815260040180806020018281038252602a815260200180610716602a913960400191505060405180910390fd5b826000803373ffffffffffffffffffffffffffffffffffffffff1673ffffffffffffffffffffffffffffffffffffffff168152602001908152602001600020600082825403925050819055507ff9226daf630542048a23086c6af599511aac100ec8f532793cc9697d061bed7e336000803373ffffffffffffffffffffffffffffffffffffffff1673ffffffffffffffffffffffffffffffffffffffff1681526020019081526020016000205485604051808473ffffffffffffffffffffffffffffffffffffffff1673ffffffffffffffffffffffffffffffffffffffff168152602001838152602001828152602001935050505060405180910390a16000803373ffffffffffffffffffffffffffffffffffffffff1673ffffffffffffffffffffffffffffffffffffffff16815260200190815260200160002054915050919050565b600260009054906101000a900473ffffffffffffffffffffffffffffffffffffffff1681565b6000600160003373ffffffffffffffffffffffffffffffffffffffff1673ffffffffffffffffffffffffffffffffffffffff16815260200190815260200160002060009054906101000a900460ff1661050c576040517f08c379a00000000000000000000000000000000000000000000000000000000081526004018080602001828103825260148152602001807f55736572206973206e6f7420656e726f6c6c656400000000000000000000000081525060200191505060405180910390fd5b346000803373ffffffffffffffffffffffffffffffffffffffff1673ffffffffffffffffffffffffffffffffffffffff168152602001908152602001600020600082825401925050819055507fa8126f7572bb1fdeae5b5aa9ec126438b91f658a07873f009d041ae690f3a1933334604051808373ffffffffffffffffffffffffffffffffffffffff1673ffffffffffffffffffffffffffffffffffffffff1681526020018281526020019250505060405180910390a16000803373ffffffffffffffffffffffffffffffffffffffff1673ffffffffffffffffffffffffffffffffffffffff16815260200190815260200160002054905090565b600060018060003373ffffffffffffffffffffffffffffffffffffffff1673ffffffffffffffffffffffffffffffffffffffff16815260200190815260200160002060006101000a81548160ff0219169083151502179055507f990c442e6adb818b8fa7db3cf1023decd07f7b66e5306928c7ed527d974192bb33604051808273ffffffffffffffffffffffffffffffffffffffff1673ffffffffffffffffffffffffffffffffffffffff16815260200191505060405180910390a1600160003373ffffffffffffffffffffffffffffffffffffffff1673ffffffffffffffffffffffffffffffffffffffff16815260200190815260200160002060009054906101000a900460ff1690509056fe5573657220646f6573206e6f74206861766520656e6f7567682066756e6420746f207769746864726177a265627a7a72315820b85e3a8135dd7484831068ae81657b6dc290b6ec1dda536a9dde568b0294076d64736f6c63430005100032",
  "source": "/*\r\n * This exercise has been updated to use Solidity version 0.8.5\r\n * See the latest Solidity updates at\r\n * https://solidity.readthedocs.io/en/latest/080-breaking-changes.html\r\n */\r\n// SPDX-License-Identifier: MIT\r\npragma solidity >=0.5.16 <0.9.0;\r\n\r\ncontract SimpleBank {\r\n\r\n    /* State variables\r\n     */\r\n    \r\n    \r\n    // Fill in the visibility keyword. \r\n    // Hint: We want to protect our users balance from other contracts\r\n    mapping (address => uint) internal balances ;\r\n    \r\n    // Fill in the visibility keyword\r\n    // Hint: We want to create a getter function and allow contracts to be able\r\n    //       to see if a user is enrolled.\r\n    mapping (address => bool) public enrolled;\r\n\r\n    // Let's make sure everyone knows who owns the bank, yes, fill in the\r\n    // appropriate visilibility keyword\r\n    address public owner = msg.sender;\r\n\r\n    /* Modifier */\r\n    modifier requireEnrolled()\r\n    {\r\n      require(enrolled[msg.sender], \"User is not enrolled\");\r\n      _;\r\n    }\r\n\r\n    modifier requireHasEnoughFund(uint withdrawAmount)\r\n    {\r\n      require(balances[msg.sender] >= withdrawAmount, \"User does not have enough fund to withdraw\");\r\n      _;\r\n    }\r\n    \r\n    /* Events - publicize actions to external listeners\r\n     */\r\n    // Add an argument for this event, an accountAddress\r\n    event LogEnrolled(address account);\r\n\r\n    // Add 2 arguments for this event, an accountAddress and an amount\r\n    event LogDepositMade(address accountAddress, uint amount);\r\n\r\n    // Create an event called LogWithdrawal\r\n    // Hint: it should take 3 arguments: an accountAddress, withdrawAmount and a newBalance \r\n    event LogWithdrawal(address accountAddress, uint newBalance, uint withdrawAmount);\r\n\r\n    /* Functions\r\n     */\r\n\r\n    // Fallback function - Called if other functions don't match call or\r\n    // sent ether without data\r\n    // Typically, called when invalid data is sent\r\n    // Added so ether sent to this contract is reverted if the contract fails\r\n    // otherwise, the sender's money is transferred to contract\r\n    function () external payable { \r\n        revert();\r\n    }\r\n\r\n    /// @notice Get balance\r\n    /// @return The balance of the user\r\n    function getBalance() public view returns (uint) {\r\n      // 1. A SPECIAL KEYWORD prevents function from editing state variables;\r\n      //    allows function to run locally/off blockchain\r\n      /* added view keyword */\r\n\r\n      // 2. Get the balance of the sender of this transaction      \r\n      return balances[msg.sender];\r\n    }\r\n\r\n    /// @notice Enroll a customer with the bank\r\n    /// @return The users enrolled status\r\n    // Emit the appropriate event\r\n    function enroll() public returns (bool)\r\n    {\r\n      // 1. enroll of the sender of this transaction\r\n      enrolled[msg.sender] = true;\r\n      emit LogEnrolled(msg.sender);\r\n      return enrolled[msg.sender];\r\n    }\r\n\r\n    /// @notice Deposit ether into bank\r\n    /// @return The balance of the user after the deposit is made\r\n    function deposit()     \r\n    public \r\n    requireEnrolled\r\n    payable returns (uint) {\r\n      // 1. Add the appropriate keyword so that this function can receive ether\r\n      //** added the keyword payable at the top */\r\n    \r\n      // 2. Users should be enrolled before they can make deposits\r\n      //** added the requireEnrolled modifier\r\n\r\n      // 3. Add the amount to the user's balance. Hint: the amount can be\r\n      //    accessed from of the global variable `msg`\r\n      balances[msg.sender] += msg.value;\r\n\r\n      // 4. Emit the appropriate event associated with this function\r\n      emit LogDepositMade(msg.sender, msg.value);\r\n\r\n      // 5. return the balance of sndr of this transaction\r\n      return balances[msg.sender];\r\n    }\r\n\r\n    /// @notice Withdraw ether from bank\r\n    /// @dev This does not return any excess ether sent to it\r\n    /// @param withdrawAmount amount you want to withdraw\r\n    /// @return The balance remaining for the user\r\n    function withdraw(uint withdrawAmount) \r\n    requireHasEnoughFund(withdrawAmount)\r\n    public returns (uint) {\r\n      // If the sender's balance is at least the amount they want to withdraw,      \r\n      // Subtract the amount from the sender's balance, and try to send that amount of ether\r\n      // to the user attempting to withdraw. \r\n      // return the user's balance.\r\n\r\n      // 1. Use a require expression to guard/ensure sender has enough funds\r\n      //** added the requireHasEnoughFund modifier */\r\n\r\n      // 2. Transfer Eth to the sender and decrement the withdrawal amount from\r\n      //    sender's balance\r\n      balances[msg.sender] -= withdrawAmount;\r\n\r\n      // 3. Emit the appropriate event for this message\r\n      emit LogWithdrawal(msg.sender, balances[msg.sender], withdrawAmount);\r\n\r\n      return balances[msg.sender];\r\n    }\r\n}\r\n",
  "sourcePath": "C:\\Project\\simple-bank-exercise-dynamasoft\\contracts\\SimpleBank.sol",
  "compiler": {
    "name": "solc",
    "version": "0.5.16+commit.9c3226ce.Emscripten.clang"
  },
  "schemaVersion": "3.4.3",
  "updatedAt": "2021-10-03T18:09:16.451Z",
  "devdoc": {
    "methods": {
      "deposit()": {
        "return": "The balance of the user after the deposit is made"
      },
      "enroll()": {
        "return": "The users enrolled status"
      },
      "getBalance()": {
        "return": "The balance of the user"
      },
      "withdraw(uint256)": {
        "details": "This does not return any excess ether sent to it",
        "params": {
          "withdrawAmount": "amount you want to withdraw"
        },
        "return": "The balance remaining for the user"
      }
    }
  },
  "userdoc": {
    "methods": {
      "deposit()": {
        "notice": "Deposit ether into bank"
      },
      "enroll()": {
        "notice": "Enroll a customer with the bank"
      },
      "getBalance()": {
        "notice": "Get balance"
      },
      "withdraw(uint256)": {
        "notice": "Withdraw ether from bank"
      }
    }
  }
}